{
  "_format": "hh-sol-artifact-1",
  "contractName": "EHRAccess",
  "sourceName": "contracts/EHRAccess.sol",
  "abi": [
    {
      "anonymous": false,
      "inputs": [
        {
          "indexed": true,
          "internalType": "address",
          "name": "patient",
          "type": "address"
        },
        {
          "indexed": true,
          "internalType": "address",
          "name": "doctor",
          "type": "address"
        },
        {
          "indexed": true,
          "internalType": "uint256",
          "name": "fileId",
          "type": "uint256"
        },
        {
          "indexed": false,
          "internalType": "enum EHRAccess.AccessType",
          "name": "access",
          "type": "uint8"
        }
      ],
      "name": "AccessGranted",
      "type": "event"
    },
    {
      "anonymous": false,
      "inputs": [
        {
          "indexed": true,
          "internalType": "address",
          "name": "patient",
          "type": "address"
        },
        {
          "indexed": true,
          "internalType": "address",
          "name": "doctor",
          "type": "address"
        },
        {
          "indexed": true,
          "internalType": "uint256",
          "name": "fileId",
          "type": "uint256"
        }
      ],
      "name": "AccessRevoked",
      "type": "event"
    },
    {
      "inputs": [
        {
          "internalType": "address",
          "name": "_patient",
          "type": "address"
        },
        {
          "internalType": "address",
          "name": "_doctor",
          "type": "address"
        },
        {
          "internalType": "uint256",
          "name": "_fileId",
          "type": "uint256"
        }
      ],
      "name": "checkAccess",
      "outputs": [
        {
          "internalType": "enum EHRAccess.AccessType",
          "name": "",
          "type": "uint8"
        }
      ],
      "stateMutability": "view",
      "type": "function"
    },
    {
      "inputs": [
        {
          "internalType": "address",
          "name": "_doctor",
          "type": "address"
        },
        {
          "internalType": "uint256",
          "name": "_fileId",
          "type": "uint256"
        },
        {
          "internalType": "enum EHRAccess.AccessType",
          "name": "_access",
          "type": "uint8"
        }
      ],
      "name": "grantAccess",
      "outputs": [],
      "stateMutability": "nonpayable",
      "type": "function"
    },
    {
      "inputs": [
        {
          "internalType": "address",
          "name": "doctor",
          "type": "address"
        },
        {
          "internalType": "uint256[]",
          "name": "fileIds",
          "type": "uint256[]"
        },
        {
          "internalType": "enum EHRAccess.AccessType",
          "name": "access",
          "type": "uint8"
        }
      ],
      "name": "grantBatchAccess",
      "outputs": [],
      "stateMutability": "nonpayable",
      "type": "function"
    },
    {
      "inputs": [
        {
          "internalType": "address",
          "name": "_doctor",
          "type": "address"
        },
        {
          "internalType": "uint256",
          "name": "_fileId",
          "type": "uint256"
        }
      ],
      "name": "revokeAccess",
      "outputs": [],
      "stateMutability": "nonpayable",
      "type": "function"
    }
  ],
  "bytecode": "0x6080604052348015600f57600080fd5b506108158061001f6000396000f3fe608060405234801561001057600080fd5b506004361061004c5760003560e01c80631bbfbb57146100515780639226969b146100815780639f2a5c7b1461009d578063a99d8379146100b9575b600080fd5b61006b6004803603810190610066919061053a565b6100d5565b6040516100789190610604565b60405180910390f35b61009b600480360381019061009691906106a9565b61017a565b005b6100b760048036038101906100b2919061071d565b610269565b005b6100d360048036038101906100ce9190610770565b610388565b005b60008060008573ffffffffffffffffffffffffffffffffffffffff1673ffffffffffffffffffffffffffffffffffffffff16815260200190815260200160002060008473ffffffffffffffffffffffffffffffffffffffff1673ffffffffffffffffffffffffffffffffffffffff168152602001908152602001600020600083815260200190815260200160002060009054906101000a900460ff1690509392505050565b60005b8383905081101561026257816000803373ffffffffffffffffffffffffffffffffffffffff1673ffffffffffffffffffffffffffffffffffffffff16815260200190815260200160002060008773ffffffffffffffffffffffffffffffffffffffff1673ffffffffffffffffffffffffffffffffffffffff1681526020019081526020016000206000868685818110610219576102186107b0565b5b90506020020135815260200190815260200160002060006101000a81548160ff021916908360038111156102505761024f61058d565b5b0217905550808060010191505061017d565b5050505050565b806000803373ffffffffffffffffffffffffffffffffffffffff1673ffffffffffffffffffffffffffffffffffffffff16815260200190815260200160002060008573ffffffffffffffffffffffffffffffffffffffff1673ffffffffffffffffffffffffffffffffffffffff168152602001908152602001600020600084815260200190815260200160002060006101000a81548160ff021916908360038111156103185761031761058d565b5b0217905550818373ffffffffffffffffffffffffffffffffffffffff163373ffffffffffffffffffffffffffffffffffffffff167f77f14a641ef4ffa3ddce1734d9cf903ebba3968fb9897c4cc5b37a6760a318628460405161037b9190610604565b60405180910390a4505050565b60008060003373ffffffffffffffffffffffffffffffffffffffff1673ffffffffffffffffffffffffffffffffffffffff16815260200190815260200160002060008473ffffffffffffffffffffffffffffffffffffffff1673ffffffffffffffffffffffffffffffffffffffff168152602001908152602001600020600083815260200190815260200160002060006101000a81548160ff021916908360038111156104385761043761058d565b5b0217905550808273ffffffffffffffffffffffffffffffffffffffff163373ffffffffffffffffffffffffffffffffffffffff167f6f6a404ffd2cea4713256a4fd9ce99c8cf8cf32d85c2bb8061d1603ff57d50c360405160405180910390a45050565b600080fd5b600080fd5b600073ffffffffffffffffffffffffffffffffffffffff82169050919050565b60006104d1826104a6565b9050919050565b6104e1816104c6565b81146104ec57600080fd5b50565b6000813590506104fe816104d8565b92915050565b6000819050919050565b61051781610504565b811461052257600080fd5b50565b6000813590506105348161050e565b92915050565b6000806000606084860312156105535761055261049c565b5b6000610561868287016104ef565b9350506020610572868287016104ef565b925050604061058386828701610525565b9150509250925092565b7f4e487b7100000000000000000000000000000000000000000000000000000000600052602160045260246000fd5b600481106105cd576105cc61058d565b5b50565b60008190506105de826105bc565b919050565b60006105ee826105d0565b9050919050565b6105fe816105e3565b82525050565b600060208201905061061960008301846105f5565b92915050565b600080fd5b600080fd5b600080fd5b60008083601f8401126106445761064361061f565b5b8235905067ffffffffffffffff81111561066157610660610624565b5b60208301915083602082028301111561067d5761067c610629565b5b9250929050565b6004811061069157600080fd5b50565b6000813590506106a381610684565b92915050565b600080600080606085870312156106c3576106c261049c565b5b60006106d1878288016104ef565b945050602085013567ffffffffffffffff8111156106f2576106f16104a1565b5b6106fe8782880161062e565b9350935050604061071187828801610694565b91505092959194509250565b6000806000606084860312156107365761073561049c565b5b6000610744868287016104ef565b935050602061075586828701610525565b925050604061076686828701610694565b9150509250925092565b600080604083850312156107875761078661049c565b5b6000610795858286016104ef565b92505060206107a685828601610525565b9150509250929050565b7f4e487b7100000000000000000000000000000000000000000000000000000000600052603260045260246000fdfea2646970667358221220d1c87fe6d8251b70142d6415edd7f831aa377777da73e8732fc5a99fa2cb5dd864736f6c634300081c0033",
  "linkReferences": {},
  "deployedLinkReferences": {}
}