{
  "_format": "hh3-artifact-1",
  "contractName": "EHRRegistry",
  "sourceName": "contracts/EHRRegistry.sol",
  "abi": [
    {
      "anonymous": false,
      "inputs": [
        {
          "indexed": true,
          "internalType": "address",
          "name": "patient",
          "type": "address"
        },
        {
          "indexed": true,
          "internalType": "uint256",
          "name": "fileId",
          "type": "uint256"
        },
        {
          "indexed": false,
          "internalType": "string",
          "name": "category",
          "type": "string"
        }
      ],
      "name": "FileRegistered",
      "type": "event"
    },
    {
      "inputs": [
        {
          "internalType": "address",
          "name": "_patient",
          "type": "address"
        }
      ],
      "name": "getFiles",
      "outputs": [
        {
          "components": [
            {
              "internalType": "uint256",
              "name": "fileId",
              "type": "uint256"
            },
            {
              "internalType": "string",
              "name": "category",
              "type": "string"
            },
            {
              "internalType": "uint256",
              "name": "timestamp",
              "type": "uint256"
            }
          ],
          "internalType": "struct EHRRegistry.FileMeta[]",
          "name": "",
          "type": "tuple[]"
        }
      ],
      "stateMutability": "view",
      "type": "function"
    },
    {
      "inputs": [
        {
          "internalType": "string",
          "name": "_category",
          "type": "string"
        }
      ],
      "name": "registerFile",
      "outputs": [],
      "stateMutability": "nonpayable",
      "type": "function"
    }
  ],
  "bytecode": "0x6080604052348015600e575f5ffd5b506105a68061001c5f395ff3fe608060405234801561000f575f5ffd5b5060043610610034575f3560e01c8063433bf37b1461003857806366d561d214610061575b5f5ffd5b61004b610046366004610254565b610076565b60405161005891906102af565b60405180910390f35b61007461006f366004610348565b61018b565b005b6001600160a01b0381165f908152600160209081526040808320805482518185028101850190935280835260609492939192909184015b82821015610180578382905f5260205f2090600302016040518060600160405290815f82015481526020016001820180546100e7906103fb565b80601f0160208091040260200160405190810160405280929190818152602001828054610113906103fb565b801561015e5780601f106101355761010080835404028352916020019161015e565b820191905f5260205f20905b81548152906001019060200180831161014157829003601f168201915b50505050508152602001600282015481525050815260200190600101906100ad565b505050509050919050565b335f908152602081905260408120805482906101a690610433565b9182905550335f908152600160208181526040808420815160608101835286815280840189815242938201939093528154808601835591865292909420825160039095020193845551939450929082019061020190826104a3565b5060408201518160020155505080336001600160a01b03167f8a245035c71270fd592e6c1a9422cccd4df61f7c8a9b17c24684366cf1c47e1484604051610248919061055e565b60405180910390a35050565b5f60208284031215610264575f5ffd5b81356001600160a01b038116811461027a575f5ffd5b9392505050565b5f81518084528060208401602086015e5f602082860101526020601f19601f83011685010191505092915050565b5f602082016020835280845180835260408501915060408160051b8601019250602086015f5b8281101561032857603f198786030184528151805186526020810151606060208801526103056060880182610281565b6040928301519790920196909652945060209384019391909101906001016102d5565b50929695505050505050565b634e487b7160e01b5f52604160045260245ffd5b5f60208284031215610358575f5ffd5b813567ffffffffffffffff81111561036e575f5ffd5b8201601f8101841361037e575f5ffd5b803567ffffffffffffffff81111561039857610398610334565b604051601f8201601f19908116603f0116810167ffffffffffffffff811182821017156103c7576103c7610334565b6040528181528282016020018610156103de575f5ffd5b816020840160208301375f91810160200191909152949350505050565b600181811c9082168061040f57607f821691505b60208210810361042d57634e487b7160e01b5f52602260045260245ffd5b50919050565b5f6001820161045057634e487b7160e01b5f52601160045260245ffd5b5060010190565b601f82111561049e57805f5260205f20601f840160051c8101602085101561047c5750805b601f840160051c820191505b8181101561049b575f8155600101610488565b50505b505050565b815167ffffffffffffffff8111156104bd576104bd610334565b6104d1816104cb84546103fb565b84610457565b6020601f821160018114610503575f83156104ec5750848201515b5f19600385901b1c1916600184901b17845561049b565b5f84815260208120601f198516915b828110156105325787850151825560209485019460019092019101610512565b508482101561054f57868401515f19600387901b60f8161c191681555b50505050600190811b01905550565b602081525f61027a602083018461028156fea264697066735822122091b857491149f8bc21da6aff1b271d1c2b55298cf89aaea3a0900807df86e86064736f6c634300081c0033",
  "linkReferences": {},
  "deployedLinkReferences": {},
  "immutableReferences": {},
  "inputSourceName": "project/contracts/EHRRegistry.sol",
  "buildInfoId": "solc-0_8_28-5f2583f741ca6fd3cce782b6b9dff57a5d0d0e88"
}