{
  "_format": "hh3-artifact-1",
  "contractName": "EHRRegistry",
  "sourceName": "contracts/EHRRegistry.sol",
  "abi": [
    {
      "anonymous": false,
      "inputs": [
        {
          "indexed": true,
          "internalType": "address",
          "name": "patient",
          "type": "address"
        },
        {
          "indexed": true,
          "internalType": "address",
          "name": "uploader",
          "type": "address"
        },
        {
          "indexed": false,
          "internalType": "string",
          "name": "fileHash",
          "type": "string"
        },
        {
          "indexed": false,
          "internalType": "uint256",
          "name": "timestamp",
          "type": "uint256"
        }
      ],
      "name": "RecordAdded",
      "type": "event"
    },
    {
      "inputs": [
        {
          "internalType": "address",
          "name": "patient",
          "type": "address"
        },
        {
          "internalType": "string",
          "name": "fileHash",
          "type": "string"
        }
      ],
      "name": "addRecord",
      "outputs": [],
      "stateMutability": "nonpayable",
      "type": "function"
    },
    {
      "inputs": [
        {
          "internalType": "address",
          "name": "patient",
          "type": "address"
        }
      ],
      "name": "getRecordCount",
      "outputs": [
        {
          "internalType": "uint256",
          "name": "",
          "type": "uint256"
        }
      ],
      "stateMutability": "view",
      "type": "function"
    }
  ],
  "bytecode": "0x6080604052348015600e575f5ffd5b506104038061001c5f395ff3fe608060405234801561000f575f5ffd5b5060043610610034575f3560e01c8063582143081461003857806366858ec814610072575b5f5ffd5b6100606100463660046101a5565b6001600160a01b03165f9081526020819052604090205490565b60405190815260200160405180910390f35b6100856100803660046101c5565b610087565b005b6001600160a01b0383165f908152602081815260409182902082516080601f8601849004909302810183019093526060830184815290929182919086908690819085018382808284375f9201829052509385525050336020808501919091524260409094019390935250835460018101855593815220815191926003020190819061011290826102db565b5060208201516001820180546001600160a01b0319166001600160a01b03928316179055604092830151600290920191909155905133918516907ffe4e374ef19a28c4c4507a2719ef28f3856baf170d6d9d13783a20ffc41fd7339061017d90869086904290610396565b60405180910390a3505050565b80356001600160a01b03811681146101a0575f5ffd5b919050565b5f602082840312156101b5575f5ffd5b6101be8261018a565b9392505050565b5f5f5f604084860312156101d7575f5ffd5b6101e08461018a565b9250602084013567ffffffffffffffff8111156101fb575f5ffd5b8401601f8101861361020b575f5ffd5b803567ffffffffffffffff811115610221575f5ffd5b866020828401011115610232575f5ffd5b939660209190910195509293505050565b634e487b7160e01b5f52604160045260245ffd5b600181811c9082168061026b57607f821691505b60208210810361028957634e487b7160e01b5f52602260045260245ffd5b50919050565b601f8211156102d657805f5260205f20601f840160051c810160208510156102b45750805b601f840160051c820191505b818110156102d3575f81556001016102c0565b50505b505050565b815167ffffffffffffffff8111156102f5576102f5610243565b610309816103038454610257565b8461028f565b6020601f82116001811461033b575f83156103245750848201515b5f19600385901b1c1916600184901b1784556102d3565b5f84815260208120601f198516915b8281101561036a578785015182556020948501946001909201910161034a565b508482101561038757868401515f19600387901b60f8161c191681555b50505050600190811b01905550565b60408152826040820152828460608301375f606084830101525f6060601f19601f860116830101905082602083015294935050505056fea2646970667358221220b5c9b85a7d98115bd263d68e40ce0a09100a70c6f6c6b3a29b5f775fdee4a6ab64736f6c634300081c0033",
  "linkReferences": {},
  "deployedLinkReferences": {},
  "immutableReferences": {},
  "inputSourceName": "project/contracts/EHRRegistry.sol",
  "buildInfoId": "solc-0_8_28-45ad26f728d729c8b5d77b17168a674418e58b72"
}